{
  "_format": "hh-sol-artifact-1",
  "contractName": "SafeAgentVault",
  "sourceName": "contracts/SafeAgentVault.sol",
  "abi": [
    {
      "inputs": [
        {
          "internalType": "address",
          "name": "_asset",
          "type": "address"
        }
      ],
      "stateMutability": "nonpayable",
      "type": "constructor"
    },
    {
      "anonymous": false,
      "inputs": [
        {
          "indexed": true,
          "internalType": "address",
          "name": "user",
          "type": "address"
        },
        {
          "indexed": true,
          "internalType": "address",
          "name": "agent",
          "type": "address"
        },
        {
          "indexed": false,
          "internalType": "uint256",
          "name": "amount",
          "type": "uint256"
        }
      ],
      "name": "AgentAllocated",
      "type": "event"
    },
    {
      "anonymous": false,
      "inputs": [
        {
          "indexed": true,
          "internalType": "address",
          "name": "user",
          "type": "address"
        },
        {
          "indexed": true,
          "internalType": "address",
          "name": "agent",
          "type": "address"
        },
        {
          "indexed": false,
          "internalType": "uint256",
          "name": "amount",
          "type": "uint256"
        }
      ],
      "name": "AgentDeallocated",
      "type": "event"
    },
    {
      "anonymous": false,
      "inputs": [
        {
          "indexed": true,
          "internalType": "address",
          "name": "agent",
          "type": "address"
        },
        {
          "indexed": false,
          "internalType": "uint256",
          "name": "maxPerTrade",
          "type": "uint256"
        },
        {
          "indexed": false,
          "internalType": "uint256",
          "name": "dailyLimit",
          "type": "uint256"
        },
        {
          "indexed": false,
          "internalType": "bool",
          "name": "canUseLeverage",
          "type": "bool"
        }
      ],
      "name": "AgentLimitsUpdated",
      "type": "event"
    },
    {
      "anonymous": false,
      "inputs": [
        {
          "indexed": true,
          "internalType": "address",
          "name": "user",
          "type": "address"
        },
        {
          "indexed": true,
          "internalType": "address",
          "name": "agent",
          "type": "address"
        },
        {
          "indexed": false,
          "internalType": "uint256",
          "name": "amount",
          "type": "uint256"
        }
      ],
      "name": "AgentSpend",
      "type": "event"
    },
    {
      "anonymous": false,
      "inputs": [
        {
          "indexed": true,
          "internalType": "address",
          "name": "agent",
          "type": "address"
        },
        {
          "indexed": true,
          "internalType": "address",
          "name": "user",
          "type": "address"
        },
        {
          "indexed": true,
          "internalType": "bytes32",
          "name": "ensNode",
          "type": "bytes32"
        },
        {
          "indexed": false,
          "internalType": "bytes32",
          "name": "routeId",
          "type": "bytes32"
        },
        {
          "indexed": false,
          "internalType": "address",
          "name": "pool",
          "type": "address"
        },
        {
          "indexed": false,
          "internalType": "bool",
          "name": "zeroForOne",
          "type": "bool"
        },
        {
          "indexed": false,
          "internalType": "uint256",
          "name": "amountIn",
          "type": "uint256"
        },
        {
          "indexed": false,
          "internalType": "uint256",
          "name": "amountOut",
          "type": "uint256"
        }
      ],
      "name": "AgentSwapExecuted",
      "type": "event"
    },
    {
      "anonymous": false,
      "inputs": [
        {
          "indexed": true,
          "internalType": "address",
          "name": "oldController",
          "type": "address"
        },
        {
          "indexed": true,
          "internalType": "address",
          "name": "newController",
          "type": "address"
        }
      ],
      "name": "ControllerUpdated",
      "type": "event"
    },
    {
      "anonymous": false,
      "inputs": [
        {
          "indexed": true,
          "internalType": "bytes32",
          "name": "oldRouteId",
          "type": "bytes32"
        },
        {
          "indexed": true,
          "internalType": "bytes32",
          "name": "newRouteId",
          "type": "bytes32"
        }
      ],
      "name": "DefaultRouteIdUpdated",
      "type": "event"
    },
    {
      "anonymous": false,
      "inputs": [
        {
          "indexed": true,
          "internalType": "address",
          "name": "user",
          "type": "address"
        },
        {
          "indexed": false,
          "internalType": "uint256",
          "name": "amount",
          "type": "uint256"
        }
      ],
      "name": "Deposited",
      "type": "event"
    },
    {
      "anonymous": false,
      "inputs": [
        {
          "indexed": true,
          "internalType": "address",
          "name": "oldENS",
          "type": "address"
        },
        {
          "indexed": true,
          "internalType": "address",
          "name": "newENS",
          "type": "address"
        }
      ],
      "name": "ENSUpdated",
      "type": "event"
    },
    {
      "anonymous": false,
      "inputs": [
        {
          "indexed": true,
          "internalType": "address",
          "name": "oldHelper",
          "type": "address"
        },
        {
          "indexed": true,
          "internalType": "address",
          "name": "newHelper",
          "type": "address"
        }
      ],
      "name": "PoolSwapHelperUpdated",
      "type": "event"
    },
    {
      "anonymous": false,
      "inputs": [
        {
          "indexed": true,
          "internalType": "bytes32",
          "name": "routeId",
          "type": "bytes32"
        },
        {
          "indexed": false,
          "internalType": "address",
          "name": "token0",
          "type": "address"
        },
        {
          "indexed": false,
          "internalType": "address",
          "name": "token1",
          "type": "address"
        },
        {
          "indexed": false,
          "internalType": "uint24",
          "name": "fee",
          "type": "uint24"
        },
        {
          "indexed": false,
          "internalType": "address",
          "name": "pool",
          "type": "address"
        },
        {
          "indexed": false,
          "internalType": "bool",
          "name": "enabled",
          "type": "bool"
        }
      ],
      "name": "RouteUpdated",
      "type": "event"
    },
    {
      "anonymous": false,
      "inputs": [
        {
          "indexed": true,
          "internalType": "address",
          "name": "user",
          "type": "address"
        },
        {
          "indexed": false,
          "internalType": "uint256",
          "name": "amount",
          "type": "uint256"
        }
      ],
      "name": "Withdrawn",
      "type": "event"
    },
    {
      "inputs": [
        {
          "internalType": "address",
          "name": "",
          "type": "address"
        },
        {
          "internalType": "address",
          "name": "",
          "type": "address"
        }
      ],
      "name": "agentBalances",
      "outputs": [
        {
          "internalType": "uint256",
          "name": "",
          "type": "uint256"
        }
      ],
      "stateMutability": "view",
      "type": "function"
    },
    {
      "inputs": [
        {
          "internalType": "address",
          "name": "",
          "type": "address"
        }
      ],
      "name": "agentConfigs",
      "outputs": [
        {
          "internalType": "bool",
          "name": "enabled",
          "type": "bool"
        },
        {
          "internalType": "bytes32",
          "name": "ensNode",
          "type": "bytes32"
        },
        {
          "internalType": "uint256",
          "name": "maxNotionalPerTrade",
          "type": "uint256"
        }
      ],
      "stateMutability": "view",
      "type": "function"
    },
    {
      "inputs": [
        {
          "internalType": "address",
          "name": "",
          "type": "address"
        }
      ],
      "name": "agentLimits",
      "outputs": [
        {
          "internalType": "uint256",
          "name": "maxPerTrade",
          "type": "uint256"
        },
        {
          "internalType": "uint256",
          "name": "dailyLimit",
          "type": "uint256"
        },
        {
          "internalType": "bool",
          "name": "canUseLeverage",
          "type": "bool"
        }
      ],
      "stateMutability": "view",
      "type": "function"
    },
    {
      "inputs": [
        {
          "internalType": "address",
          "name": "",
          "type": "address"
        },
        {
          "internalType": "address",
          "name": "",
          "type": "address"
        }
      ],
      "name": "agentSpent",
      "outputs": [
        {
          "internalType": "uint256",
          "name": "",
          "type": "uint256"
        }
      ],
      "stateMutability": "view",
      "type": "function"
    },
    {
      "inputs": [
        {
          "internalType": "address",
          "name": "agent",
          "type": "address"
        },
        {
          "internalType": "uint256",
          "name": "amount",
          "type": "uint256"
        }
      ],
      "name": "allocateToAgent",
      "outputs": [],
      "stateMutability": "nonpayable",
      "type": "function"
    },
    {
      "inputs": [],
      "name": "approveAndExecute",
      "outputs": [],
      "stateMutability": "nonpayable",
      "type": "function"
    },
    {
      "inputs": [],
      "name": "asset",
      "outputs": [
        {
          "internalType": "contract IERC20",
          "name": "",
          "type": "address"
        }
      ],
      "stateMutability": "view",
      "type": "function"
    },
    {
      "inputs": [
        {
          "internalType": "address",
          "name": "",
          "type": "address"
        }
      ],
      "name": "balances",
      "outputs": [
        {
          "internalType": "uint256",
          "name": "",
          "type": "uint256"
        }
      ],
      "stateMutability": "view",
      "type": "function"
    },
    {
      "inputs": [
        {
          "internalType": "address",
          "name": "token0",
          "type": "address"
        },
        {
          "internalType": "address",
          "name": "token1",
          "type": "address"
        },
        {
          "internalType": "uint24",
          "name": "fee",
          "type": "uint24"
        },
        {
          "internalType": "address",
          "name": "pool",
          "type": "address"
        }
      ],
      "name": "computeRouteId",
      "outputs": [
        {
          "internalType": "bytes32",
          "name": "",
          "type": "bytes32"
        }
      ],
      "stateMutability": "pure",
      "type": "function"
    },
    {
      "inputs": [
        {
          "internalType": "address",
          "name": "user",
          "type": "address"
        },
        {
          "internalType": "address",
          "name": "agent",
          "type": "address"
        },
        {
          "internalType": "uint256",
          "name": "amount",
          "type": "uint256"
        }
      ],
      "name": "consumeAgentBalance",
      "outputs": [],
      "stateMutability": "nonpayable",
      "type": "function"
    },
    {
      "inputs": [],
      "name": "controller",
      "outputs": [
        {
          "internalType": "address",
          "name": "",
          "type": "address"
        }
      ],
      "stateMutability": "view",
      "type": "function"
    },
    {
      "inputs": [
        {
          "internalType": "address",
          "name": "agent",
          "type": "address"
        },
        {
          "internalType": "uint256",
          "name": "amount",
          "type": "uint256"
        }
      ],
      "name": "deallocateFromAgent",
      "outputs": [],
      "stateMutability": "nonpayable",
      "type": "function"
    },
    {
      "inputs": [],
      "name": "defaultRouteId",
      "outputs": [
        {
          "internalType": "bytes32",
          "name": "",
          "type": "bytes32"
        }
      ],
      "stateMutability": "view",
      "type": "function"
    },
    {
      "inputs": [
        {
          "internalType": "uint256",
          "name": "amount",
          "type": "uint256"
        }
      ],
      "name": "deposit",
      "outputs": [],
      "stateMutability": "nonpayable",
      "type": "function"
    },
    {
      "inputs": [],
      "name": "ens",
      "outputs": [
        {
          "internalType": "contract IENS",
          "name": "",
          "type": "address"
        }
      ],
      "stateMutability": "view",
      "type": "function"
    },
    {
      "inputs": [
        {
          "internalType": "address",
          "name": "user",
          "type": "address"
        },
        {
          "internalType": "bytes32",
          "name": "routeId",
          "type": "bytes32"
        },
        {
          "internalType": "bool",
          "name": "zeroForOne",
          "type": "bool"
        },
        {
          "internalType": "uint256",
          "name": "amountIn",
          "type": "uint256"
        },
        {
          "internalType": "uint256",
          "name": "minAmountOut",
          "type": "uint256"
        }
      ],
      "name": "executeSwap",
      "outputs": [
        {
          "internalType": "uint256",
          "name": "amountOut",
          "type": "uint256"
        }
      ],
      "stateMutability": "nonpayable",
      "type": "function"
    },
    {
      "inputs": [
        {
          "internalType": "address",
          "name": "agent",
          "type": "address"
        },
        {
          "internalType": "uint256",
          "name": "i",
          "type": "uint256"
        }
      ],
      "name": "getAllowedRouteAt",
      "outputs": [
        {
          "internalType": "bytes32",
          "name": "",
          "type": "bytes32"
        }
      ],
      "stateMutability": "view",
      "type": "function"
    },
    {
      "inputs": [
        {
          "internalType": "address",
          "name": "agent",
          "type": "address"
        }
      ],
      "name": "getAllowedRouteCount",
      "outputs": [
        {
          "internalType": "uint256",
          "name": "",
          "type": "uint256"
        }
      ],
      "stateMutability": "view",
      "type": "function"
    },
    {
      "inputs": [
        {
          "internalType": "address",
          "name": "agent",
          "type": "address"
        }
      ],
      "name": "getAllowedRoutes",
      "outputs": [
        {
          "internalType": "bytes32[]",
          "name": "",
          "type": "bytes32[]"
        }
      ],
      "stateMutability": "view",
      "type": "function"
    },
    {
      "inputs": [],
      "name": "owner",
      "outputs": [
        {
          "internalType": "address",
          "name": "",
          "type": "address"
        }
      ],
      "stateMutability": "view",
      "type": "function"
    },
    {
      "inputs": [],
      "name": "pendingRequest",
      "outputs": [
        {
          "internalType": "address",
          "name": "agent",
          "type": "address"
        },
        {
          "internalType": "uint256",
          "name": "amount",
          "type": "uint256"
        },
        {
          "internalType": "bool",
          "name": "zeroForOne",
          "type": "bool"
        },
        {
          "internalType": "bool",
          "name": "approved",
          "type": "bool"
        },
        {
          "internalType": "bool",
          "name": "executed",
          "type": "bool"
        }
      ],
      "stateMutability": "view",
      "type": "function"
    },
    {
      "inputs": [],
      "name": "poolSwapHelper",
      "outputs": [
        {
          "internalType": "contract IPoolSwapHelper",
          "name": "",
          "type": "address"
        }
      ],
      "stateMutability": "view",
      "type": "function"
    },
    {
      "inputs": [
        {
          "internalType": "uint256",
          "name": "amount",
          "type": "uint256"
        },
        {
          "internalType": "bool",
          "name": "zeroForOne",
          "type": "bool"
        }
      ],
      "name": "requestExecution",
      "outputs": [],
      "stateMutability": "nonpayable",
      "type": "function"
    },
    {
      "inputs": [
        {
          "internalType": "bytes32",
          "name": "",
          "type": "bytes32"
        }
      ],
      "name": "routes",
      "outputs": [
        {
          "internalType": "address",
          "name": "token0",
          "type": "address"
        },
        {
          "internalType": "address",
          "name": "token1",
          "type": "address"
        },
        {
          "internalType": "uint24",
          "name": "fee",
          "type": "uint24"
        },
        {
          "internalType": "address",
          "name": "pool",
          "type": "address"
        },
        {
          "internalType": "bool",
          "name": "enabled",
          "type": "bool"
        }
      ],
      "stateMutability": "view",
      "type": "function"
    },
    {
      "inputs": [
        {
          "internalType": "address",
          "name": "agent",
          "type": "address"
        },
        {
          "internalType": "bool",
          "name": "enabled",
          "type": "bool"
        },
        {
          "internalType": "bytes32",
          "name": "ensNode",
          "type": "bytes32"
        },
        {
          "internalType": "bytes32[]",
          "name": "allowedRoutes",
          "type": "bytes32[]"
        },
        {
          "internalType": "uint256",
          "name": "maxNotionalPerTrade",
          "type": "uint256"
        }
      ],
      "name": "setAgentConfig",
      "outputs": [],
      "stateMutability": "nonpayable",
      "type": "function"
    },
    {
      "inputs": [
        {
          "internalType": "address",
          "name": "agent",
          "type": "address"
        },
        {
          "internalType": "uint256",
          "name": "maxPerTrade",
          "type": "uint256"
        },
        {
          "internalType": "uint256",
          "name": "dailyLimit",
          "type": "uint256"
        },
        {
          "internalType": "bool",
          "name": "canUseLeverage",
          "type": "bool"
        }
      ],
      "name": "setAgentLimits",
      "outputs": [],
      "stateMutability": "nonpayable",
      "type": "function"
    },
    {
      "inputs": [
        {
          "internalType": "address",
          "name": "newController",
          "type": "address"
        }
      ],
      "name": "setController",
      "outputs": [],
      "stateMutability": "nonpayable",
      "type": "function"
    },
    {
      "inputs": [
        {
          "internalType": "address",
          "name": "token0",
          "type": "address"
        },
        {
          "internalType": "address",
          "name": "token1",
          "type": "address"
        },
        {
          "internalType": "uint24",
          "name": "fee",
          "type": "uint24"
        },
        {
          "internalType": "address",
          "name": "pool",
          "type": "address"
        }
      ],
      "name": "setDefaultRoute",
      "outputs": [],
      "stateMutability": "nonpayable",
      "type": "function"
    },
    {
      "inputs": [
        {
          "internalType": "bytes32",
          "name": "routeId",
          "type": "bytes32"
        }
      ],
      "name": "setDefaultRouteId",
      "outputs": [],
      "stateMutability": "nonpayable",
      "type": "function"
    },
    {
      "inputs": [
        {
          "internalType": "address",
          "name": "ens_",
          "type": "address"
        }
      ],
      "name": "setENS",
      "outputs": [],
      "stateMutability": "nonpayable",
      "type": "function"
    },
    {
      "inputs": [
        {
          "internalType": "address",
          "name": "_poolSwapHelper",
          "type": "address"
        }
      ],
      "name": "setPoolSwapHelper",
      "outputs": [],
      "stateMutability": "nonpayable",
      "type": "function"
    },
    {
      "inputs": [
        {
          "internalType": "bytes32",
          "name": "routeId",
          "type": "bytes32"
        },
        {
          "internalType": "address",
          "name": "token0",
          "type": "address"
        },
        {
          "internalType": "address",
          "name": "token1",
          "type": "address"
        },
        {
          "internalType": "uint24",
          "name": "fee",
          "type": "uint24"
        },
        {
          "internalType": "address",
          "name": "pool",
          "type": "address"
        },
        {
          "internalType": "bool",
          "name": "enabled",
          "type": "bool"
        }
      ],
      "name": "setRoute",
      "outputs": [],
      "stateMutability": "nonpayable",
      "type": "function"
    },
    {
      "inputs": [
        {
          "internalType": "uint256",
          "name": "amount",
          "type": "uint256"
        }
      ],
      "name": "withdraw",
      "outputs": [],
      "stateMutability": "nonpayable",
      "type": "function"
    }
  ],
  "bytecode": "0x60a060405234801561001057600080fd5b50604051615b88380380615b88833981810160405281019061003291906101bf565b600073ffffffffffffffffffffffffffffffffffffffff168173ffffffffffffffffffffffffffffffffffffffff16036100a1576040517f08c379a000000000000000000000000000000000000000000000000000000000815260040161009890610249565b60405180910390fd5b336000806101000a81548173ffffffffffffffffffffffffffffffffffffffff021916908373ffffffffffffffffffffffffffffffffffffffff16021790555033600160006101000a81548173ffffffffffffffffffffffffffffffffffffffff021916908373ffffffffffffffffffffffffffffffffffffffff1602179055508073ffffffffffffffffffffffffffffffffffffffff1660808173ffffffffffffffffffffffffffffffffffffffff168152505050610269565b600080fd5b600073ffffffffffffffffffffffffffffffffffffffff82169050919050565b600061018c82610161565b9050919050565b61019c81610181565b81146101a757600080fd5b50565b6000815190506101b981610193565b92915050565b6000602082840312156101d5576101d461015c565b5b60006101e3848285016101aa565b91505092915050565b600082825260208201905092915050565b7f6173736574206973207a65726f00000000000000000000000000000000000000600082015250565b6000610233600d836101ec565b915061023e826101fd565b602082019050919050565b6000602082019050818103600083015261026281610226565b9050919050565b6080516158e86102a06000396000818161192a01528181611f710152818161213e015281816131f00152613be801526158e86000f3fe608060405234801561001057600080fd5b50600436106101fb5760003560e01c806371bf5a951161011a578063b9ac9966116100ad578063e2b0a15d1161007c578063e2b0a15d146105c0578063ed0cbbfb146105e2578063ee5cd29d14610614578063f77c479114610644578063fc626c6c14610662576101fb565b8063b9ac99661461053a578063ca491a3d1461056a578063d8f0cfb914610588578063def56a7c146105a4576101fb565b806392eefe9b116100e957806392eefe9b146104ca578063987f723a146104e6578063a2ee00d514610502578063b6b55f251461051e576101fb565b806371bf5a951461046a57806382ece743146104865780638da5cb5b146104a25780638eb9fd5c146104c0576101fb565b80632cedf907116101925780633a75142d116101615780633a75142d146103d05780633f15457f146104005780635de12ae11461041e5780636cdb39e71461044e576101fb565b80632cedf9071461034a5780632e1a7d4d1461036657806332608d051461038257806338d52e0f146103b2576101fb565b806318d5069d116101ce57806318d5069d146102b25780631d62123a146102ce578063258cbf7d146102ea57806327e235e31461031a576101fb565b8063020e1c0714610200578063066e94811461023057806316a99c591461026457806317468f2e14610280575b600080fd5b61021a60048036038101906102159190613f56565b610680565b6040516102279190613fd6565b60405180910390f35b61024a6004803603810190610245919061401d565b6106b9565b60405161025b959493929190614083565b60405180910390f35b61027e60048036038101906102799190613f56565b61076b565b005b61029a600480360381019061029591906140d6565b610a2f565b6040516102a99392919061411c565b60405180910390f35b6102cc60048036038101906102c79190614210565b610a66565b005b6102e860048036038101906102e391906142aa565b610bf1565b005b61030460048036038101906102ff91906142fd565b6110fc565b6040516103119190614378565b60405180910390f35b610334600480360381019061032f91906140d6565b611bb6565b6040516103419190614378565b60405180910390f35b610364600480360381019061035f9190614393565b611bce565b005b610380600480360381019061037b91906143d3565b611e54565b005b61039c600480360381019061039791906140d6565b6120a2565b6040516103a991906144be565b60405180910390f35b6103ba61213c565b6040516103c7919061453f565b60405180910390f35b6103ea60048036038101906103e5919061455a565b612160565b6040516103f79190614378565b60405180910390f35b610408612185565b60405161041591906145bb565b60405180910390f35b610438600480360381019061043391906140d6565b6121ab565b6040516104459190614378565b60405180910390f35b610468600480360381019061046391906145d6565b6121fa565b005b610484600480360381019061047f91906140d6565b6123e2565b005b6104a0600480360381019061049b919061401d565b612536565b005b6104aa6126a9565b6040516104b7919061463d565b60405180910390f35b6104c86126cd565b005b6104e460048036038101906104df91906140d6565b612960565b005b61050060048036038101906104fb9190614393565b612b23565b005b61051c60048036038101906105179190614658565b612de6565b005b610538600480360381019061053391906143d3565b6131a9565b005b610554600480360381019061054f919061455a565b613378565b6040516105619190614378565b60405180910390f35b61057261339d565b60405161057f9190613fd6565b60405180910390f35b6105a2600480360381019061059d91906140d6565b6133a3565b005b6105be60048036038101906105b991906146e5565b6134f7565b005b6105c8613737565b6040516105d9959493929190614725565b60405180910390f35b6105fc60048036038101906105f791906140d6565b6137a2565b60405161060b93929190614778565b60405180910390f35b61062e60048036038101906106299190614393565b6137d9565b60405161063b9190613fd6565b60405180910390f35b61064c613842565b604051610659919061463d565b60405180910390f35b61066a613868565b60405161067791906147d0565b60405180910390f35b6000848484846040516020016106999493929190614869565b604051602081830303815290604052805190602001209050949350505050565b60086020528060005260406000206000915090508060000160009054906101000a900473ffffffffffffffffffffffffffffffffffffffff16908060010160009054906101000a900473ffffffffffffffffffffffffffffffffffffffff16908060010160149054906101000a900462ffffff16908060020160009054906101000a900473ffffffffffffffffffffffffffffffffffffffff16908060020160149054906101000a900460ff16905085565b60008054906101000a900473ffffffffffffffffffffffffffffffffffffffff1673ffffffffffffffffffffffffffffffffffffffff163373ffffffffffffffffffffffffffffffffffffffff16146107f9576040517f08c379a00000000000000000000000000000000000000000000000000000000081526004016107f090614914565b60405180910390fd5b600061080785858585610680565b90506040518060a001604052808673ffffffffffffffffffffffffffffffffffffffff1681526020018573ffffffffffffffffffffffffffffffffffffffff1681526020018462ffffff1681526020018373ffffffffffffffffffffffffffffffffffffffff168152602001600115158152506008600083815260200190815260200160002060008201518160000160006101000a81548173ffffffffffffffffffffffffffffffffffffffff021916908373ffffffffffffffffffffffffffffffffffffffff16021790555060208201518160010160006101000a81548173ffffffffffffffffffffffffffffffffffffffff021916908373ffffffffffffffffffffffffffffffffffffffff16021790555060408201518160010160146101000a81548162ffffff021916908362ffffff16021790555060608201518160020160006101000a81548173ffffffffffffffffffffffffffffffffffffffff021916908373ffffffffffffffffffffffffffffffffffffffff16021790555060808201518160020160146101000a81548160ff021916908315150217905550905050807f54e4621e785fe380bc25bb17daacb32991902a76596dbaf68dc19d98972e07708686868660016040516109e3959493929190614083565b60405180910390a2600060095490508160098190555081817f4f657684c43184168827eb8227343fcc3fb5d42476bdef7cd4bf70483e0d0d5960405160405180910390a3505050505050565b600c6020528060005260406000206000915090508060000154908060010154908060020160009054906101000a900460ff16905083565b60008054906101000a900473ffffffffffffffffffffffffffffffffffffffff1673ffffffffffffffffffffffffffffffffffffffff163373ffffffffffffffffffffffffffffffffffffffff1614610af4576040517f08c379a0000000000000000000000000000000000000000000000000000000008152600401610aeb90614914565b60405180910390fd5b600073ffffffffffffffffffffffffffffffffffffffff168673ffffffffffffffffffffffffffffffffffffffff1603610b63576040517f08c379a0000000000000000000000000000000000000000000000000000000008152600401610b5a90614980565b60405180910390fd5b6000600d60008873ffffffffffffffffffffffffffffffffffffffff1673ffffffffffffffffffffffffffffffffffffffff1681526020019081526020016000209050858160000160006101000a81548160ff0219169083151502179055508481600101819055508383826003019190610bde929190613e49565b5081816002018190555050505050505050565b600160009054906101000a900473ffffffffffffffffffffffffffffffffffffffff1673ffffffffffffffffffffffffffffffffffffffff163373ffffffffffffffffffffffffffffffffffffffff1614610c81576040517f08c379a0000000000000000000000000000000000000000000000000000000008152600401610c78906149ec565b60405180910390fd5b600073ffffffffffffffffffffffffffffffffffffffff168373ffffffffffffffffffffffffffffffffffffffff1603610cf0576040517f08c379a0000000000000000000000000000000000000000000000000000000008152600401610ce790614a58565b60405180910390fd5b600073ffffffffffffffffffffffffffffffffffffffff168273ffffffffffffffffffffffffffffffffffffffff1603610d5f576040517f08c379a0000000000000000000000000000000000000000000000000000000008152600401610d5690614980565b60405180910390fd5b60008111610da2576040517f08c379a0000000000000000000000000000000000000000000000000000000008152600401610d9990614ac4565b60405180910390fd5b6000600c60008473ffffffffffffffffffffffffffffffffffffffff1673ffffffffffffffffffffffffffffffffffffffff16815260200190815260200160002060405180606001604052908160008201548152602001600182015481526020016002820160009054906101000a900460ff16151515158152505090506000816000015111610e66576040517f08c379a0000000000000000000000000000000000000000000000000000000008152600401610e5d90614b30565b60405180910390fd5b8060000151821115610ead576040517f08c379a0000000000000000000000000000000000000000000000000000000008152600401610ea490614b9c565b60405180910390fd5b6000600b60008673ffffffffffffffffffffffffffffffffffffffff1673ffffffffffffffffffffffffffffffffffffffff16815260200190815260200160002060008573ffffffffffffffffffffffffffffffffffffffff1673ffffffffffffffffffffffffffffffffffffffff16815260200190815260200160002054905082811015610f71576040517f08c379a0000000000000000000000000000000000000000000000000000000008152600401610f6890614c08565b60405180910390fd5b8281610f7d9190614c57565b600b60008773ffffffffffffffffffffffffffffffffffffffff1673ffffffffffffffffffffffffffffffffffffffff16815260200190815260200160002060008673ffffffffffffffffffffffffffffffffffffffff1673ffffffffffffffffffffffffffffffffffffffff1681526020019081526020016000208190555082600e60008773ffffffffffffffffffffffffffffffffffffffff1673ffffffffffffffffffffffffffffffffffffffff16815260200190815260200160002060008673ffffffffffffffffffffffffffffffffffffffff1673ffffffffffffffffffffffffffffffffffffffff16815260200190815260200160002060008282546110899190614c8b565b925050819055508373ffffffffffffffffffffffffffffffffffffffff168573ffffffffffffffffffffffffffffffffffffffff167f01dea9e942d4b524a073c8dd6160dee9ee4ea0c986c2f56171be67d0fdc149da856040516110ed9190614378565b60405180910390a35050505050565b60008060045414611142576040517f08c379a000000000000000000000000000000000000000000000000000000000815260040161113990614d0b565b60405180910390fd5b60016004819055506000600d60003373ffffffffffffffffffffffffffffffffffffffff1673ffffffffffffffffffffffffffffffffffffffff16815260200190815260200160002090508060000160009054906101000a900460ff166111de576040517f08c379a00000000000000000000000000000000000000000000000000000000081526004016111d590614d77565b60405180910390fd5b600073ffffffffffffffffffffffffffffffffffffffff168773ffffffffffffffffffffffffffffffffffffffff160361124d576040517f08c379a000000000000000000000000000000000000000000000000000000000815260040161124490614a58565b60405180910390fd5b60008411611290576040517f08c379a000000000000000000000000000000000000000000000000000000000815260040161128790614ac4565b60405180910390fd5b80600201548411156112d7576040517f08c379a00000000000000000000000000000000000000000000000000000000081526004016112ce90614de3565b60405180910390fd5b6000600860008881526020019081526020016000206040518060a00160405290816000820160009054906101000a900473ffffffffffffffffffffffffffffffffffffffff1673ffffffffffffffffffffffffffffffffffffffff1673ffffffffffffffffffffffffffffffffffffffff1681526020016001820160009054906101000a900473ffffffffffffffffffffffffffffffffffffffff1673ffffffffffffffffffffffffffffffffffffffff1673ffffffffffffffffffffffffffffffffffffffff1681526020016001820160149054906101000a900462ffffff1662ffffff1662ffffff1681526020016002820160009054906101000a900473ffffffffffffffffffffffffffffffffffffffff1673ffffffffffffffffffffffffffffffffffffffff1673ffffffffffffffffffffffffffffffffffffffff1681526020016002820160149054906101000a900460ff1615151515815250509050600073ffffffffffffffffffffffffffffffffffffffff16816060015173ffffffffffffffffffffffffffffffffffffffff16036114ac576040517f08c379a00000000000000000000000000000000000000000000000000000000081526004016114a390614e4f565b60405180910390fd5b80608001516114f0576040517f08c379a00000000000000000000000000000000000000000000000000000000081526004016114e790614ebb565b60405180910390fd5b6114fa828861388e565b611539576040517f08c379a000000000000000000000000000000000000000000000000000000000815260040161153090614f27565b60405180910390fd5b600073ffffffffffffffffffffffffffffffffffffffff16600360009054906101000a900473ffffffffffffffffffffffffffffffffffffffff1673ffffffffffffffffffffffffffffffffffffffff161415801561159f57506000801b826001015414155b156116b2573373ffffffffffffffffffffffffffffffffffffffff16600360009054906101000a900473ffffffffffffffffffffffffffffffffffffffff1673ffffffffffffffffffffffffffffffffffffffff166302571be384600101546040518263ffffffff1660e01b815260040161161a9190613fd6565b602060405180830381865afa158015611637573d6000803e3d6000fd5b505050506040513d601f19601f8201168201806040525081019061165b9190614f5c565b73ffffffffffffffffffffffffffffffffffffffff16146116b1576040517f08c379a00000000000000000000000000000000000000000000000000000000081526004016116a890614fd5565b60405180910390fd5b5b600073ffffffffffffffffffffffffffffffffffffffff16600260009054906101000a900473ffffffffffffffffffffffffffffffffffffffff1673ffffffffffffffffffffffffffffffffffffffff1603611743576040517f08c379a000000000000000000000000000000000000000000000000000000000815260040161173a90615041565b60405180910390fd5b84600b60008a73ffffffffffffffffffffffffffffffffffffffff1673ffffffffffffffffffffffffffffffffffffffff16815260200190815260200160002060003373ffffffffffffffffffffffffffffffffffffffff1673ffffffffffffffffffffffffffffffffffffffff168152602001908152602001600020541015611802576040517f08c379a00000000000000000000000000000000000000000000000000000000081526004016117f990614c08565b60405180910390fd5b84600b60008a73ffffffffffffffffffffffffffffffffffffffff1673ffffffffffffffffffffffffffffffffffffffff16815260200190815260200160002060003373ffffffffffffffffffffffffffffffffffffffff1673ffffffffffffffffffffffffffffffffffffffff168152602001908152602001600020600082825461188e9190614c57565b9250508190555084600e60008a73ffffffffffffffffffffffffffffffffffffffff1673ffffffffffffffffffffffffffffffffffffffff16815260200190815260200160002060003373ffffffffffffffffffffffffffffffffffffffff1673ffffffffffffffffffffffffffffffffffffffff16815260200190815260200160002060008282546119219190614c8b565b925050819055507f000000000000000000000000000000000000000000000000000000000000000073ffffffffffffffffffffffffffffffffffffffff1663095ea7b3600260009054906101000a900473ffffffffffffffffffffffffffffffffffffffff16876040518363ffffffff1660e01b81526004016119a5929190615061565b6020604051808303816000875af11580156119c4573d6000803e3d6000fd5b505050506040513d601f19601f820116820180604052508101906119e8919061509f565b5060006040518060600160405280836000015173ffffffffffffffffffffffffffffffffffffffff168152602001836020015173ffffffffffffffffffffffffffffffffffffffff168152602001836040015162ffffff168152509050600260009054906101000a900473ffffffffffffffffffffffffffffffffffffffff1673ffffffffffffffffffffffffffffffffffffffff1663d4ea2c778289896040518463ffffffff1660e01b8152600401611aa49392919061512c565b6020604051808303816000875af1158015611ac3573d6000803e3d6000fd5b505050506040513d601f19601f82011682018060405250810190611ae79190615178565b935084841015611b2c576040517f08c379a0000000000000000000000000000000000000000000000000000000008152600401611b23906151f1565b60405180910390fd5b82600101548973ffffffffffffffffffffffffffffffffffffffff163373ffffffffffffffffffffffffffffffffffffffff167fffc068e0b0b0046fbc951c3648414b8039f4811c02fcb54f312b6b5e484acf328b86606001518c8c8b604051611b9a959493929190615211565b60405180910390a4505050600060048190555095945050505050565b600a6020528060005260406000206000915090505481565b600073ffffffffffffffffffffffffffffffffffffffff168273ffffffffffffffffffffffffffffffffffffffff1603611c3d576040517f08c379a0000000000000000000000000000000000000000000000000000000008152600401611c3490614980565b60405180910390fd5b60008111611c80576040517f08c379a0000000000000000000000000000000000000000000000000000000008152600401611c7790614ac4565b60405180910390fd5b80600a60003373ffffffffffffffffffffffffffffffffffffffff1673ffffffffffffffffffffffffffffffffffffffff168152602001908152602001600020541015611d02576040517f08c379a0000000000000000000000000000000000000000000000000000000008152600401611cf9906152b0565b60405180910390fd5b80600a60003373ffffffffffffffffffffffffffffffffffffffff1673ffffffffffffffffffffffffffffffffffffffff1681526020019081526020016000206000828254611d519190614c57565b9250508190555080600b60003373ffffffffffffffffffffffffffffffffffffffff1673ffffffffffffffffffffffffffffffffffffffff16815260200190815260200160002060008473ffffffffffffffffffffffffffffffffffffffff1673ffffffffffffffffffffffffffffffffffffffff1681526020019081526020016000206000828254611de49190614c8b565b925050819055508173ffffffffffffffffffffffffffffffffffffffff163373ffffffffffffffffffffffffffffffffffffffff167f2f7c0e222502ff2b6399692db7e1844edf3ce57791a08bc3ae9eb7a55c8affd283604051611e489190614378565b60405180910390a35050565b60008111611e97576040517f08c379a0000000000000000000000000000000000000000000000000000000008152600401611e8e90614ac4565b60405180910390fd5b6000600a60003373ffffffffffffffffffffffffffffffffffffffff1673ffffffffffffffffffffffffffffffffffffffff16815260200190815260200160002054905081811015611f1e576040517f08c379a0000000000000000000000000000000000000000000000000000000008152600401611f159061531c565b60405180910390fd5b8181611f2a9190614c57565b600a60003373ffffffffffffffffffffffffffffffffffffffff1673ffffffffffffffffffffffffffffffffffffffff1681526020019081526020016000208190555060007f000000000000000000000000000000000000000000000000000000000000000073ffffffffffffffffffffffffffffffffffffffff1663a9059cbb33856040518363ffffffff1660e01b8152600401611fca929190615061565b6020604051808303816000875af1158015611fe9573d6000803e3d6000fd5b505050506040513d601f19601f8201168201806040525081019061200d919061509f565b90508061204f576040517f08c379a000000000000000000000000000000000000000000000000000000000815260040161204690615388565b60405180910390fd5b3373ffffffffffffffffffffffffffffffffffffffff167f7084f5476618d8e60b11ef0d7d3f06914655adb8793e28ff7f018d4c76d505d5846040516120959190614378565b60405180910390a2505050565b6060600d60008373ffffffffffffffffffffffffffffffffffffffff1673ffffffffffffffffffffffffffffffffffffffff16815260200190815260200160002060030180548060200260200160405190810160405280929190818152602001828054801561213057602002820191906000526020600020905b81548152602001906001019080831161211c575b50505050509050919050565b7f000000000000000000000000000000000000000000000000000000000000000081565b600e602052816000526040600020602052806000526040600020600091509150505481565b600360009054906101000a900473ffffffffffffffffffffffffffffffffffffffff1681565b6000600d60008373ffffffffffffffffffffffffffffffffffffffff1673ffffffffffffffffffffffffffffffffffffffff168152602001908152602001600020600301805490509050919050565b60008054906101000a900473ffffffffffffffffffffffffffffffffffffffff1673ffffffffffffffffffffffffffffffffffffffff163373ffffffffffffffffffffffffffffffffffffffff1614612288576040517f08c379a000000000000000000000000000000000000000000000000000000000815260040161227f90614914565b60405180910390fd5b600073ffffffffffffffffffffffffffffffffffffffff168473ffffffffffffffffffffffffffffffffffffffff16036122f7576040517f08c379a00000000000000000000000000000000000000000000000000000000081526004016122ee90614980565b60405180910390fd5b6040518060600160405280848152602001838152602001821515815250600c60008673ffffffffffffffffffffffffffffffffffffffff1673ffffffffffffffffffffffffffffffffffffffff168152602001908152602001600020600082015181600001556020820151816001015560408201518160020160006101000a81548160ff0219169083151502179055509050508373ffffffffffffffffffffffffffffffffffffffff167f5ced7a7ca971113d644493b153dd0bfcf0c3f13cc1881728949644162e6546098484846040516123d49392919061411c565b60405180910390a250505050565b60008054906101000a900473ffffffffffffffffffffffffffffffffffffffff1673ffffffffffffffffffffffffffffffffffffffff163373ffffffffffffffffffffffffffffffffffffffff1614612470576040517f08c379a000000000000000000000000000000000000000000000000000000000815260040161246790614914565b60405180910390fd5b6000600360009054906101000a900473ffffffffffffffffffffffffffffffffffffffff16905081600360006101000a81548173ffffffffffffffffffffffffffffffffffffffff021916908373ffffffffffffffffffffffffffffffffffffffff1602179055508173ffffffffffffffffffffffffffffffffffffffff168173ffffffffffffffffffffffffffffffffffffffff167fed0b522d02b1b212ccda1d40a4fe476a407aabb7cb8ef53aba8589c4f602fba860405160405180910390a35050565b60008054906101000a900473ffffffffffffffffffffffffffffffffffffffff1673ffffffffffffffffffffffffffffffffffffffff163373ffffffffffffffffffffffffffffffffffffffff16146125c4576040517f08c379a00000000000000000000000000000000000000000000000000000000081526004016125bb90614914565b60405180910390fd5b600073ffffffffffffffffffffffffffffffffffffffff166008600083815260200190815260200160002060020160009054906101000a900473ffffffffffffffffffffffffffffffffffffffff1673ffffffffffffffffffffffffffffffffffffffff1603612669576040517f08c379a000000000000000000000000000000000000000000000000000000000815260040161266090614e4f565b60405180910390fd5b600060095490508160098190555081817f4f657684c43184168827eb8227343fcc3fb5d42476bdef7cd4bf70483e0d0d5960405160405180910390a35050565b60008054906101000a900473ffffffffffffffffffffffffffffffffffffffff1681565b60008054906101000a900473ffffffffffffffffffffffffffffffffffffffff1673ffffffffffffffffffffffffffffffffffffffff163373ffffffffffffffffffffffffffffffffffffffff161461275b576040517f08c379a000000000000000000000000000000000000000000000000000000000815260040161275290614914565b60405180910390fd5b6000600590508060020160029054906101000a900460ff16156127b3576040517f08c379a00000000000000000000000000000000000000000000000000000000081526004016127aa906153f4565b60405180910390fd5b8060020160019054906101000a900460ff1615612805576040517f08c379a00000000000000000000000000000000000000000000000000000000081526004016127fc90615460565b60405180910390fd5b6000600d60008360000160009054906101000a900473ffffffffffffffffffffffffffffffffffffffff1673ffffffffffffffffffffffffffffffffffffffff1673ffffffffffffffffffffffffffffffffffffffff16815260200190815260200160002090508060020154826001015411156128b7576040517f08c379a00000000000000000000000000000000000000000000000000000000081526004016128ae906154cc565b60405180910390fd5b60018260020160016101000a81548160ff0219169083151502179055506129188260000160009054906101000a900473ffffffffffffffffffffffffffffffffffffffff1683600101548460020160009054906101000a900460ff166138f2565b60018260020160026101000a81548160ff02191690831515021790555060008160000160006101000a81548160ff021916908315150217905550600081600201819055505050565b60008054906101000a900473ffffffffffffffffffffffffffffffffffffffff1673ffffffffffffffffffffffffffffffffffffffff163373ffffffffffffffffffffffffffffffffffffffff16146129ee576040517f08c379a00000000000000000000000000000000000000000000000000000000081526004016129e590614914565b60405180910390fd5b600073ffffffffffffffffffffffffffffffffffffffff168173ffffffffffffffffffffffffffffffffffffffff1603612a5d576040517f08c379a0000000000000000000000000000000000000000000000000000000008152600401612a5490615538565b60405180910390fd5b6000600160009054906101000a900473ffffffffffffffffffffffffffffffffffffffff16905081600160006101000a81548173ffffffffffffffffffffffffffffffffffffffff021916908373ffffffffffffffffffffffffffffffffffffffff1602179055508173ffffffffffffffffffffffffffffffffffffffff168173ffffffffffffffffffffffffffffffffffffffff167f1c87e2bbc4e5fa5d7f6f8c44d66cb241dff224b8602eb5435ca2076d2a5c6fc260405160405180910390a35050565b600073ffffffffffffffffffffffffffffffffffffffff168273ffffffffffffffffffffffffffffffffffffffff1603612b92576040517f08c379a0000000000000000000000000000000000000000000000000000000008152600401612b8990614980565b60405180910390fd5b60008111612bd5576040517f08c379a0000000000000000000000000000000000000000000000000000000008152600401612bcc90614ac4565b60405180910390fd5b80600b60003373ffffffffffffffffffffffffffffffffffffffff1673ffffffffffffffffffffffffffffffffffffffff16815260200190815260200160002060008473ffffffffffffffffffffffffffffffffffffffff1673ffffffffffffffffffffffffffffffffffffffff168152602001908152602001600020541015612c94576040517f08c379a0000000000000000000000000000000000000000000000000000000008152600401612c8b90614c08565b60405180910390fd5b80600b60003373ffffffffffffffffffffffffffffffffffffffff1673ffffffffffffffffffffffffffffffffffffffff16815260200190815260200160002060008473ffffffffffffffffffffffffffffffffffffffff1673ffffffffffffffffffffffffffffffffffffffff1681526020019081526020016000206000828254612d209190614c57565b9250508190555080600a60003373ffffffffffffffffffffffffffffffffffffffff1673ffffffffffffffffffffffffffffffffffffffff1681526020019081526020016000206000828254612d769190614c8b565b925050819055508173ffffffffffffffffffffffffffffffffffffffff163373ffffffffffffffffffffffffffffffffffffffff167fb440a6ce937d6afa152c7a86774cf8acb75357c6cfef7aacd270ca250d42e45683604051612dda9190614378565b60405180910390a35050565b60008054906101000a900473ffffffffffffffffffffffffffffffffffffffff1673ffffffffffffffffffffffffffffffffffffffff163373ffffffffffffffffffffffffffffffffffffffff1614612e74576040517f08c379a0000000000000000000000000000000000000000000000000000000008152600401612e6b90614914565b60405180910390fd5b600073ffffffffffffffffffffffffffffffffffffffff168573ffffffffffffffffffffffffffffffffffffffff1603612ee3576040517f08c379a0000000000000000000000000000000000000000000000000000000008152600401612eda906155a4565b60405180910390fd5b600073ffffffffffffffffffffffffffffffffffffffff168473ffffffffffffffffffffffffffffffffffffffff1603612f52576040517f08c379a0000000000000000000000000000000000000000000000000000000008152600401612f4990615610565b60405180910390fd5b600073ffffffffffffffffffffffffffffffffffffffff168273ffffffffffffffffffffffffffffffffffffffff1603612fc1576040517f08c379a0000000000000000000000000000000000000000000000000000000008152600401612fb89061567c565b60405180910390fd5b6040518060a001604052808673ffffffffffffffffffffffffffffffffffffffff1681526020018573ffffffffffffffffffffffffffffffffffffffff1681526020018462ffffff1681526020018373ffffffffffffffffffffffffffffffffffffffff1681526020018215158152506008600088815260200190815260200160002060008201518160000160006101000a81548173ffffffffffffffffffffffffffffffffffffffff021916908373ffffffffffffffffffffffffffffffffffffffff16021790555060208201518160010160006101000a81548173ffffffffffffffffffffffffffffffffffffffff021916908373ffffffffffffffffffffffffffffffffffffffff16021790555060408201518160010160146101000a81548162ffffff021916908362ffffff16021790555060608201518160020160006101000a81548173ffffffffffffffffffffffffffffffffffffffff021916908373ffffffffffffffffffffffffffffffffffffffff16021790555060808201518160020160146101000a81548160ff021916908315150217905550905050857f54e4621e785fe380bc25bb17daacb32991902a76596dbaf68dc19d98972e07708686868686604051613199959493929190614083565b60405180910390a2505050505050565b600081116131ec576040517f08c379a00000000000000000000000000000000000000000000000000000000081526004016131e390614ac4565b60405180910390fd5b60007f000000000000000000000000000000000000000000000000000000000000000073ffffffffffffffffffffffffffffffffffffffff166323b872dd3330856040518463ffffffff1660e01b815260040161324b9392919061569c565b6020604051808303816000875af115801561326a573d6000803e3d6000fd5b505050506040513d601f19601f8201168201806040525081019061328e919061509f565b9050806132d0576040517f08c379a00000000000000000000000000000000000000000000000000000000081526004016132c79061571f565b60405180910390fd5b81600a60003373ffffffffffffffffffffffffffffffffffffffff1673ffffffffffffffffffffffffffffffffffffffff168152602001908152602001600020600082825461331f9190614c8b565b925050819055503373ffffffffffffffffffffffffffffffffffffffff167f2da466a7b24304f47e87fa2e1e5a81b9831ce54fec19055ce277ca2f39ba42c48360405161336c9190614378565b60405180910390a25050565b600b602052816000526040600020602052806000526040600020600091509150505481565b60095481565b60008054906101000a900473ffffffffffffffffffffffffffffffffffffffff1673ffffffffffffffffffffffffffffffffffffffff163373ffffffffffffffffffffffffffffffffffffffff1614613431576040517f08c379a000000000000000000000000000000000000000000000000000000000815260040161342890614914565b60405180910390fd5b6000600260009054906101000a900473ffffffffffffffffffffffffffffffffffffffff16905081600260006101000a81548173ffffffffffffffffffffffffffffffffffffffff021916908373ffffffffffffffffffffffffffffffffffffffff1602179055508173ffffffffffffffffffffffffffffffffffffffff168173ffffffffffffffffffffffffffffffffffffffff167fed422b6d9a7f3ce24b5e6fd9ab22ee952145ca412b961cd59fd604efb598558f60405160405180910390a35050565b600d60003373ffffffffffffffffffffffffffffffffffffffff1673ffffffffffffffffffffffffffffffffffffffff16815260200190815260200160002060000160009054906101000a900460ff16613586576040517f08c379a000000000000000000000000000000000000000000000000000000000815260040161357d9061578b565b60405180910390fd5b600082116135c9576040517f08c379a00000000000000000000000000000000000000000000000000000000081526004016135c0906157f7565b60405180910390fd5b600560020160019054906101000a900460ff161580156135f95750600560020160029054906101000a900460ff16155b613638576040517f08c379a000000000000000000000000000000000000000000000000000000000815260040161362f90615863565b60405180910390fd5b6040518060a001604052803373ffffffffffffffffffffffffffffffffffffffff168152602001838152602001821515815260200160001515815260200160001515815250600560008201518160000160006101000a81548173ffffffffffffffffffffffffffffffffffffffff021916908373ffffffffffffffffffffffffffffffffffffffff1602179055506020820151816001015560408201518160020160006101000a81548160ff02191690831515021790555060608201518160020160016101000a81548160ff02191690831515021790555060808201518160020160026101000a81548160ff0219169083151502179055509050505050565b60058060000160009054906101000a900473ffffffffffffffffffffffffffffffffffffffff16908060010154908060020160009054906101000a900460ff16908060020160019054906101000a900460ff16908060020160029054906101000a900460ff16905085565b600d6020528060005260406000206000915090508060000160009054906101000a900460ff16908060010154908060020154905083565b6000600d60008473ffffffffffffffffffffffffffffffffffffffff1673ffffffffffffffffffffffffffffffffffffffff168152602001908152602001600020600301828154811061382f5761382e615883565b5b9060005260206000200154905092915050565b600160009054906101000a900473ffffffffffffffffffffffffffffffffffffffff1681565b600260009054906101000a900473ffffffffffffffffffffffffffffffffffffffff1681565b6000808360030180549050905060005b818110156138e557838560030182815481106138bd576138bc615883565b5b9060005260206000200154036138d8576001925050506138ec565b808060010191505061389e565b5060009150505b92915050565b6000600d60008573ffffffffffffffffffffffffffffffffffffffff1673ffffffffffffffffffffffffffffffffffffffff1681526020019081526020016000209050600060095490506000600860008381526020019081526020016000206040518060a00160405290816000820160009054906101000a900473ffffffffffffffffffffffffffffffffffffffff1673ffffffffffffffffffffffffffffffffffffffff1673ffffffffffffffffffffffffffffffffffffffff1681526020016001820160009054906101000a900473ffffffffffffffffffffffffffffffffffffffff1673ffffffffffffffffffffffffffffffffffffffff1673ffffffffffffffffffffffffffffffffffffffff1681526020016001820160149054906101000a900462ffffff1662ffffff1662ffffff1681526020016002820160009054906101000a900473ffffffffffffffffffffffffffffffffffffffff1673ffffffffffffffffffffffffffffffffffffffff1673ffffffffffffffffffffffffffffffffffffffff1681526020016002820160149054906101000a900460ff1615151515815250509050600073ffffffffffffffffffffffffffffffffffffffff16816060015173ffffffffffffffffffffffffffffffffffffffff1603613b11576040517f08c379a0000000000000000000000000000000000000000000000000000000008152600401613b0890614e4f565b60405180910390fd5b8060800151613b55576040517f08c379a0000000000000000000000000000000000000000000000000000000008152600401613b4c90614ebb565b60405180910390fd5b600073ffffffffffffffffffffffffffffffffffffffff16600260009054906101000a900473ffffffffffffffffffffffffffffffffffffffff1673ffffffffffffffffffffffffffffffffffffffff1603613be6576040517f08c379a0000000000000000000000000000000000000000000000000000000008152600401613bdd90615041565b60405180910390fd5b7f000000000000000000000000000000000000000000000000000000000000000073ffffffffffffffffffffffffffffffffffffffff1663095ea7b3600260009054906101000a900473ffffffffffffffffffffffffffffffffffffffff16876040518363ffffffff1660e01b8152600401613c63929190615061565b6020604051808303816000875af1158015613c82573d6000803e3d6000fd5b505050506040513d601f19601f82011682018060405250810190613ca6919061509f565b5060006040518060600160405280836000015173ffffffffffffffffffffffffffffffffffffffff168152602001836020015173ffffffffffffffffffffffffffffffffffffffff168152602001836040015162ffffff1681525090506000600260009054906101000a900473ffffffffffffffffffffffffffffffffffffffff1673ffffffffffffffffffffffffffffffffffffffff1663d4ea2c7783888a6040518463ffffffff1660e01b8152600401613d649392919061512c565b6020604051808303816000875af1158015613d83573d6000803e3d6000fd5b505050506040513d601f19601f82011682018060405250810190613da79190615178565b9050846001015460008054906101000a900473ffffffffffffffffffffffffffffffffffffffff1673ffffffffffffffffffffffffffffffffffffffff168973ffffffffffffffffffffffffffffffffffffffff167fffc068e0b0b0046fbc951c3648414b8039f4811c02fcb54f312b6b5e484acf328787606001518b8d88604051613e37959493929190615211565b60405180910390a45050505050505050565b828054828255906000526020600020908101928215613e85579160200282015b82811115613e84578235825591602001919060010190613e69565b5b509050613e929190613e96565b5090565b5b80821115613eaf576000816000905550600101613e97565b5090565b600080fd5b600080fd5b600073ffffffffffffffffffffffffffffffffffffffff82169050919050565b6000613ee882613ebd565b9050919050565b613ef881613edd565b8114613f0357600080fd5b50565b600081359050613f1581613eef565b92915050565b600062ffffff82169050919050565b613f3381613f1b565b8114613f3e57600080fd5b50565b600081359050613f5081613f2a565b92915050565b60008060008060808587031215613f7057613f6f613eb3565b5b6000613f7e87828801613f06565b9450506020613f8f87828801613f06565b9350506040613fa087828801613f41565b9250506060613fb187828801613f06565b91505092959194509250565b6000819050919050565b613fd081613fbd565b82525050565b6000602082019050613feb6000830184613fc7565b92915050565b613ffa81613fbd565b811461400557600080fd5b50565b60008135905061401781613ff1565b92915050565b60006020828403121561403357614032613eb3565b5b600061404184828501614008565b91505092915050565b61405381613edd565b82525050565b61406281613f1b565b82525050565b60008115159050919050565b61407d81614068565b82525050565b600060a082019050614098600083018861404a565b6140a5602083018761404a565b6140b26040830186614059565b6140bf606083018561404a565b6140cc6080830184614074565b9695505050505050565b6000602082840312156140ec576140eb613eb3565b5b60006140fa84828501613f06565b91505092915050565b6000819050919050565b61411681614103565b82525050565b6000606082019050614131600083018661410d565b61413e602083018561410d565b61414b6040830184614074565b949350505050565b61415c81614068565b811461416757600080fd5b50565b60008135905061417981614153565b92915050565b600080fd5b600080fd5b600080fd5b60008083601f8401126141a4576141a361417f565b5b8235905067ffffffffffffffff8111156141c1576141c0614184565b5b6020830191508360208202830111156141dd576141dc614189565b5b9250929050565b6141ed81614103565b81146141f857600080fd5b50565b60008135905061420a816141e4565b92915050565b60008060008060008060a0878903121561422d5761422c613eb3565b5b600061423b89828a01613f06565b965050602061424c89828a0161416a565b955050604061425d89828a01614008565b945050606087013567ffffffffffffffff81111561427e5761427d613eb8565b5b61428a89828a0161418e565b9350935050608061429d89828a016141fb565b9150509295509295509295565b6000806000606084860312156142c3576142c2613eb3565b5b60006142d186828701613f06565b93505060206142e286828701613f06565b92505060406142f3868287016141fb565b9150509250925092565b600080600080600060a0868803121561431957614318613eb3565b5b600061432788828901613f06565b955050602061433888828901614008565b94505060406143498882890161416a565b935050606061435a888289016141fb565b925050608061436b888289016141fb565b9150509295509295909350565b600060208201905061438d600083018461410d565b92915050565b600080604083850312156143aa576143a9613eb3565b5b60006143b885828601613f06565b92505060206143c9858286016141fb565b9150509250929050565b6000602082840312156143e9576143e8613eb3565b5b60006143f7848285016141fb565b91505092915050565b600081519050919050565b600082825260208201905092915050565b6000819050602082019050919050565b61443581613fbd565b82525050565b6000614447838361442c565b60208301905092915050565b6000602082019050919050565b600061446b82614400565b614475818561440b565b93506144808361441c565b8060005b838110156144b1578151614498888261443b565b97506144a383614453565b925050600181019050614484565b5085935050505092915050565b600060208201905081810360008301526144d88184614460565b905092915050565b6000819050919050565b60006145056145006144fb84613ebd565b6144e0565b613ebd565b9050919050565b6000614517826144ea565b9050919050565b60006145298261450c565b9050919050565b6145398161451e565b82525050565b60006020820190506145546000830184614530565b92915050565b6000806040838503121561457157614570613eb3565b5b600061457f85828601613f06565b925050602061459085828601613f06565b9150509250929050565b60006145a58261450c565b9050919050565b6145b58161459a565b82525050565b60006020820190506145d060008301846145ac565b92915050565b600080600080608085870312156145f0576145ef613eb3565b5b60006145fe87828801613f06565b945050602061460f878288016141fb565b9350506040614620878288016141fb565b92505060606146318782880161416a565b91505092959194509250565b6000602082019050614652600083018461404a565b92915050565b60008060008060008060c0878903121561467557614674613eb3565b5b600061468389828a01614008565b965050602061469489828a01613f06565b95505060406146a589828a01613f06565b94505060606146b689828a01613f41565b93505060806146c789828a01613f06565b92505060a06146d889828a0161416a565b9150509295509295509295565b600080604083850312156146fc576146fb613eb3565b5b600061470a858286016141fb565b925050602061471b8582860161416a565b9150509250929050565b600060a08201905061473a600083018861404a565b614747602083018761410d565b6147546040830186614074565b6147616060830185614074565b61476e6080830184614074565b9695505050505050565b600060608201905061478d6000830186614074565b61479a6020830185613fc7565b6147a7604083018461410d565b949350505050565b60006147ba8261450c565b9050919050565b6147ca816147af565b82525050565b60006020820190506147e560008301846147c1565b92915050565b60008160601b9050919050565b6000614803826147eb565b9050919050565b6000614815826147f8565b9050919050565b61482d61482882613edd565b61480a565b82525050565b60008160e81b9050919050565b600061484b82614833565b9050919050565b61486361485e82613f1b565b614840565b82525050565b6000614875828761481c565b601482019150614885828661481c565b6014820191506148958285614852565b6003820191506148a5828461481c565b60148201915081905095945050505050565b600082825260208201905092915050565b7f6e6f74206f776e65720000000000000000000000000000000000000000000000600082015250565b60006148fe6009836148b7565b9150614909826148c8565b602082019050919050565b6000602082019050818103600083015261492d816148f1565b9050919050565b7f6167656e743d3000000000000000000000000000000000000000000000000000600082015250565b600061496a6007836148b7565b915061497582614934565b602082019050919050565b600060208201905081810360008301526149998161495d565b9050919050565b7f6e6f7420636f6e74726f6c6c6572000000000000000000000000000000000000600082015250565b60006149d6600e836148b7565b91506149e1826149a0565b602082019050919050565b60006020820190508181036000830152614a05816149c9565b9050919050565b7f757365723d300000000000000000000000000000000000000000000000000000600082015250565b6000614a426006836148b7565b9150614a4d82614a0c565b602082019050919050565b60006020820190508181036000830152614a7181614a35565b9050919050565b7f616d6f756e743d30000000000000000000000000000000000000000000000000600082015250565b6000614aae6008836148b7565b9150614ab982614a78565b602082019050919050565b60006020820190508181036000830152614add81614aa1565b9050919050565b7f6167656e74206e6f7420636f6e66696775726564000000000000000000000000600082015250565b6000614b1a6014836148b7565b9150614b2582614ae4565b602082019050919050565b60006020820190508181036000830152614b4981614b0d565b9050919050565b7f6c696d69743a206d617850657254726164650000000000000000000000000000600082015250565b6000614b866012836148b7565b9150614b9182614b50565b602082019050919050565b60006020820190508181036000830152614bb581614b79565b9050919050565b7f696e73756666696369656e74206167656e742062616c616e6365000000000000600082015250565b6000614bf2601a836148b7565b9150614bfd82614bbc565b602082019050919050565b60006020820190508181036000830152614c2181614be5565b9050919050565b7f4e487b7100000000000000000000000000000000000000000000000000000000600052601160045260246000fd5b6000614c6282614103565b9150614c6d83614103565b9250828203905081811115614c8557614c84614c28565b5b92915050565b6000614c9682614103565b9150614ca183614103565b9250828201905080821115614cb957614cb8614c28565b5b92915050565b7f7265656e7472616e740000000000000000000000000000000000000000000000600082015250565b6000614cf56009836148b7565b9150614d0082614cbf565b602082019050919050565b60006020820190508181036000830152614d2481614ce8565b9050919050565b7f6167656e742064697361626c6564000000000000000000000000000000000000600082015250565b6000614d61600e836148b7565b9150614d6c82614d2b565b602082019050919050565b60006020820190508181036000830152614d9081614d54565b9050919050565b7f747261646520746f6f2062696700000000000000000000000000000000000000600082015250565b6000614dcd600d836148b7565b9150614dd882614d97565b602082019050919050565b60006020820190508181036000830152614dfc81614dc0565b9050919050565b7f726f757465206e6f742065786973747300000000000000000000000000000000600082015250565b6000614e396010836148b7565b9150614e4482614e03565b602082019050919050565b60006020820190508181036000830152614e6881614e2c565b9050919050565b7f726f7574652064697361626c6564000000000000000000000000000000000000600082015250565b6000614ea5600e836148b7565b9150614eb082614e6f565b602082019050919050565b60006020820190508181036000830152614ed481614e98565b9050919050565b7f726f757465206e6f7420616c6c6f776564000000000000000000000000000000600082015250565b6000614f116011836148b7565b9150614f1c82614edb565b602082019050919050565b60006020820190508181036000830152614f4081614f04565b9050919050565b600081519050614f5681613eef565b92915050565b600060208284031215614f7257614f71613eb3565b5b6000614f8084828501614f47565b91505092915050565b7f454e53206f776e6572206d69736d617463680000000000000000000000000000600082015250565b6000614fbf6012836148b7565b9150614fca82614f89565b602082019050919050565b60006020820190508181036000830152614fee81614fb2565b9050919050565b7f706f6f6c5377617048656c706572206e6f742073657400000000000000000000600082015250565b600061502b6016836148b7565b915061503682614ff5565b602082019050919050565b6000602082019050818103600083015261505a8161501e565b9050919050565b6000604082019050615076600083018561404a565b615083602083018461410d565b9392505050565b60008151905061509981614153565b92915050565b6000602082840312156150b5576150b4613eb3565b5b60006150c38482850161508a565b91505092915050565b6150d581613edd565b82525050565b6150e481613f1b565b82525050565b60608201600082015161510060008501826150cc565b50602082015161511360208501826150cc565b50604082015161512660408501826150db565b50505050565b600060a08201905061514160008301866150ea565b61514e6060830185614074565b61515b608083018461410d565b949350505050565b600081519050615172816141e4565b92915050565b60006020828403121561518e5761518d613eb3565b5b600061519c84828501615163565b91505092915050565b7f736c697070616765000000000000000000000000000000000000000000000000600082015250565b60006151db6008836148b7565b91506151e6826151a5565b602082019050919050565b6000602082019050818103600083015261520a816151ce565b9050919050565b600060a0820190506152266000830188613fc7565b615233602083018761404a565b6152406040830186614074565b61524d606083018561410d565b61525a608083018461410d565b9695505050505050565b7f696e73756666696369656e74207661756c742062616c616e6365000000000000600082015250565b600061529a601a836148b7565b91506152a582615264565b602082019050919050565b600060208201905081810360008301526152c98161528d565b9050919050565b7f696e73756666696369656e742062616c616e6365000000000000000000000000600082015250565b60006153066014836148b7565b9150615311826152d0565b602082019050919050565b60006020820190508181036000830152615335816152f9565b9050919050565b7f7472616e73666572206661696c65640000000000000000000000000000000000600082015250565b6000615372600f836148b7565b915061537d8261533c565b602082019050919050565b600060208201905081810360008301526153a181615365565b9050919050565b7f414c52454144595f455845435554454400000000000000000000000000000000600082015250565b60006153de6010836148b7565b91506153e9826153a8565b602082019050919050565b6000602082019050818103600083015261540d816153d1565b9050919050565b7f414c52454144595f415050524f56454400000000000000000000000000000000600082015250565b600061544a6010836148b7565b915061545582615414565b602082019050919050565b600060208201905081810360008301526154798161543d565b9050919050565b7f4341505f45584345454445440000000000000000000000000000000000000000600082015250565b60006154b6600c836148b7565b91506154c182615480565b602082019050919050565b600060208201905081810360008301526154e5816154a9565b9050919050565b7f636f6e74726f6c6c65723d300000000000000000000000000000000000000000600082015250565b6000615522600c836148b7565b915061552d826154ec565b602082019050919050565b6000602082019050818103600083015261555181615515565b9050919050565b7f746f6b656e303d30000000000000000000000000000000000000000000000000600082015250565b600061558e6008836148b7565b915061559982615558565b602082019050919050565b600060208201905081810360008301526155bd81615581565b9050919050565b7f746f6b656e313d30000000000000000000000000000000000000000000000000600082015250565b60006155fa6008836148b7565b9150615605826155c4565b602082019050919050565b60006020820190508181036000830152615629816155ed565b9050919050565b7f706f6f6c3d300000000000000000000000000000000000000000000000000000600082015250565b60006156666006836148b7565b915061567182615630565b602082019050919050565b6000602082019050818103600083015261569581615659565b9050919050565b60006060820190506156b1600083018661404a565b6156be602083018561404a565b6156cb604083018461410d565b949350505050565b7f7472616e7366657246726f6d206661696c656400000000000000000000000000600082015250565b60006157096013836148b7565b9150615714826156d3565b602082019050919050565b60006020820190508181036000830152615738816156fc565b9050919050565b7f4147454e545f44495341424c4544000000000000000000000000000000000000600082015250565b6000615775600e836148b7565b91506157808261573f565b602082019050919050565b600060208201905081810360008301526157a481615768565b9050919050565b7f494e56414c49445f414d4f554e54000000000000000000000000000000000000600082015250565b60006157e1600e836148b7565b91506157ec826157ab565b602082019050919050565b60006020820190508181036000830152615810816157d4565b9050919050565b7f524551554553545f455849535453000000000000000000000000000000000000600082015250565b600061584d600e836148b7565b915061585882615817565b602082019050919050565b6000602082019050818103600083015261587c81615840565b9050919050565b7f4e487b7100000000000000000000000000000000000000000000000000000000600052603260045260246000fdfea2646970667358221220eef7c39b07cfa7f97f89444a12a6ae35f53dbe923c9f3b777be19cb29544acfb64736f6c634300081c0033",
  "linkReferences": {},
  "deployedLinkReferences": {}
}